:03000000020BC12F
:0C0BC100787FE4F6D8FD758169020C080D
:100DB60077656C636F6D652000636F5F70706D3A69
:100DC60000434F4E5400636F5F70706D00636F5F3A
:100DD60074696D65004241434B00454E54455200CF
:100DE600636F5F74696D653A00534F530041542B2E
:100DF600434D47463D310D0A0041542B435343535F
:100E06003D2247534D220D0A0041542B434D475373
:100E16003D223139383039303530373736220D0AF0
:010E260000CB
:100E9300011900015301015401021C000002080062
:100EA3000102510001041530303000011B010A0A10
:100EB30000000000000000000000011E00011401FA
:100EC30020321F00000000000000000000000000AE
:100ED300000000000000000000000000000000000F
:100EE30000000000000000000000000000000000FF
:080EF3000000000000011A00DC
:1011AE00E4F592F591F596F595F5B4F5B3F594F55C
:0811BE0093F5B2F5B1D2B522A0
:100FC50020A0107FC87E0012121F20A00630A0FDB1
:100FD5007F012220A1107FC87E0012121F20A106CA
:100FE50030A1FD7F022220A2107FC87E0012121FB1
:100FF50020A20630A2FD7F032220A3107FC87E0019
:0F10050012121F20A30630A3FD7F04227F0022BA
:10085E00E553B4010AE519B401050553E4F519E5AC
:10086E005364027040E519B40109E5542553F5535C
:10087E00E4F519E519B402051553E4F519E519B4B3
:10088E00030F1554E554C394015003755402E4F557
:10089E0019E519B4040F0554E554D39402400375B9
:1008AE005401E4F519E55364036009E553640460EB
:1008BE000302095CE519B40109755301755401E48D
:1008CE00F519E5196403703EE554B4011A0509E5FE
:1008DE000970020508D394F4E508940140067508E2
:1008EE0000750901E4F519E554B4021A0552E552F2
:1008FE0070020551D39458E55194024006750800D4
:10090E00750901E4F519E51964047042E554B40162
:10091E001CE509150970021508C3E5099401E508DF
:10092E0094005006750800750964E4F519E554B491
:10093E00021CE552155270021551C3E5529401E5A1
:0F094E005194005006750802750958E4F51922F6
:1010C300C2C312095D7FFF1211C67F647E00121234
:1010D3001FE4FF1211C67F647E0012121F1211F467
:0E10E3007F647E0012121F7F647E00021233B3
:100C4D00AE1CAF1D7C037DE8120ADD7E007F64CFF4
:100C5D00CDCFCECCCE120ADDEF2430F515AE1CAFC4
:100C6D001D7C007D64120ADD7E007F0ACFCDCFCEC4
:100C7D00CCCE120ADDEF2430F516AE1CAF1D7C0074
:100C8D007D0A120ADDED2430F5171211F47BFF7A7F
:100C9D000D79B67D017F19120B327BFF7A0D79BF6D
:100CAD007D037F19120B327B007A0079157D037F4E
:100CBD0051120B327BFF7A0D79C77D057F600209DA
:010CCD00FC2A
:101014001211F4E5547BFF7A0D79CC7D017F19B46C
:1010240001051209FC8003120B32E5547BFF7A0D93
:1010340079D37D037F19B402051209FC8003120BD6
:10104400327BFF7A0D79DB7D057F011209FC7BFF82
:0B1054007A0D79C77D057F600209FC62
:100CCE001211F47BFF7A0D79BF7D027F191209FC98
:100CDE00AE08AF097C037DE8120ADD7E007F64CF8B
:100CEE00CDCFCECCCE120ADDEF2430F515AE08AF47
:100CFE00097C007D64120ADD7E007F0ACFCDCFCE47
:100D0E00CCCE120ADDEF2430F516AE08AF097C000A
:100D1E007D0A120ADDED2430F5177B007A00791575
:100D2E007D027F511209FC7BFF7A0D79E07D057FF4
:040D3E00580209FC52
:100D42001211F47BFF7A0D79E67D027F191209FCFC
:100D5200AE51AF527C037DE8120ADD7E007F64CF84
:100D6200CDCFCECCCE120ADDEF2430F515AE51AF89
:100D7200527C007D64120ADD7E007F0ACFCDCFCE89
:100D8200CCCE120ADDEF2430F516AE08AF097C0096
:100D92007D0A120ADDED2430F5177B007A00791501
:100DA2007D027F591209FC7BFF7A0D79E07D057F78
:040DB200580209FCDE
:10111F00E553B40103120C4DE553B402031210143E
:10112F00E553B40310E554B40103120CCEE554B4E7
:06113F000203120D422222
:08127000438801D2A8D2AF228D
:03000300021243A3
:0D12430020800375190330800375190432F3
:10119000759850438E40538EFE43A27F53890F753E
:0E11A0008BE0758DFEC2ABD28ED2ACD2AF22E8
:03002300020E27A3
:100E2700C0E0C0F0C083C082C0D075D000C000C091
:100E370001C002C003C004C005C006C00730990541
:100E4700C299751B01309829C298740A251EF8A605
:100E570099051EE51EB40919751E00E50EFE7C00F6
:100E6700E4250FF51DEC3EF51CE553B40103120C08
:100E77004DD007D006D005D004D003D002D001D082
:0C0E870000D0D0D082D083D0F0D0E03278
:10120A00759A50438E0475D7E875D6FF438E1043FE
:05121A00AF01D2AF227C
:0300430002105F49
:10105F00C0E0C0D075D000C000E59A30E014539ABC
:10106F00FE741F251AF8A69B051AE51AB4320375EC
:10107F001A00E59A30E106539AFD751401D000D09D
:04108F00D0D0E032AB
:0A125D00E51460FC8F9BE4F51422F9
:0C1250007F32781FE4F608DFFCE4F51A9A
:01125C00226F
:10116B008B558A568957AB55AA56A957120A9760C1
:10117B00130557E5577002055614F9120A97FF121B
:05118B00125D80E2226C
:101093007BFF7A0D79F312116B7F647E0012121FAE
:1010A3007BFF7A0D79FF12116B7F647E0012121F92
:1010B3007BFF7A0E790F12116B7F647E0002121F81
:1011DE00D292D2CA7F647E0012121FC292C2CA7FFE
:0611EE00E87E0302121F5F
:100EFC001211AE1210C312120A1212701211907F3C
:100F0C00647E0012121F120C4D120FC58F19E519B9
:100F1C00600612085E12111FD3E51D9509E51C959C
:100F2C000840E67F647E0012121F1211DE7F647E81
:100F3C000012121F1210937F327E0012121F7BFFC1
:100F4C007A0D79EF12116B7F1A12125D7FD07E072A
:050F5C0012121F80B419
:100046000000000000000000002F00000000070074
:10005600070000147F147F1400242A7F2A120062EE
:10006600640813230036495522500000050300009A
:1000760000001C224100000041221C000014083E22
:1000860008140008083E0808000000A060000008E8
:10009600080808080000606000000020100804023C
:1000A600003E5149453E0000427F400000426151FA
:1000B6004946002141454B31001814127F10002794
:1000C60045454539003C4A49493000017109050357
:1000D60000364949493600064949291E0000363688
:1000E60000000000563600000008142241000014EB
:1000F60014141414000041221408000201510906C8
:1001060000324959513E007C1211127C007F494948
:100116004936003E41414122007F4141221C007F79
:1001260049494941007F09090901003E4149497A87
:10013600007F0808087F0000417F41000020404101
:100146003F01007F08142241007F40404040007F6D
:10015600020C027F007F0408107F003E4141413EB1
:10016600007F09090906003E4151215E007F0919F9
:1001760029460046494949310001017F0101003FF6
:100186004040403F001F2040201F003F4038403F76
:1001960000631408146300070870080700615149DA
:1001A600454300007F41410000552A552A5500006D
:1001B60041417F00000402010204004040404040EB
:1001C600000001020400002054545478007F484483
:1001D600443800384444442000384444487F0038BA
:1001E6005454541800087E0901020018A4A4A47CE3
:1001F600007F080404780000447D400000408084AD
:100206007D00007F102844000000417F4000007CF4
:1002160004180478007C0804047800384444443800
:1002260000FC242424180018242418FC007C08044C
:10023600040800485454542000043F444020003C25
:100246004040207C001C2040201C003C4030403CAC
:10025600004428102844001CA0A0A07C004464543C
:100266004C44141414141414000000000000000080
:100276000000000000000000000000F80000000080
:10028600000000333000000000100C06100C0600C1
:10029600000000000000000040C07840C078400028
:1002A600043F04043F040400007088FC083000008A
:1002B600001820FF211E0000F008F000E0180000E2
:1002C60000211C031E211E0000F00888700000009B
:1002D6001E2123241927211010160E0000000000ED
:1002E6000000000000000000000000E0180402000A
:1002F600000000071820400000020418E00000007B
:100306000040201807000000404080F08040400078
:100316000202010F01020200000000F000000000CE
:100326000101011F010101000000000000000000A2
:1003360080B0700000000000000000000000000017
:1003460000010101010101010000000000000000A0
:10035600003030000000000000000000806018043B
:10036600006018060100000000E010080810E00018
:10037600000F102020100F00001010F800000000E1
:100386000020203F20200000007008080888700028
:1003960000302824222130000030088888483000A8
:1003A6000018202020110E000000C02010F80000C8
:1003B60000070424243F240000F808888808080061
:1003C6000019212020110E0000E010888818000076
:1003D600000F112020110E0000380808C838080048
:1003E6000000003F000000000070880808887000C8
:1003F600001C222121221C0000E010080810E00049
:100406000000312222110F00000000C0C0000000D1
:1004160000000030300000000000008000000000F6
:1004260000008060000000000000804020100800EE
:1004360000010204081020004040404040404000B7
:100446000404040404040400000810204080000092
:100456000020100804020100007048080808F00097
:100466000000003036010000C030C828E810E00067
:100476000718272423140B000000C038E0000000F2
:10048600203C23020227382008F88888887000005C
:10049600203F202020110E00C03008080808380030
:1004A600071820202010080008F808080810E000A7
:1004B600203F202020100F0008F88888E808100048
:1004C600203F20202320180008F88888E80810001C
:1004D600203F200003000000C03008080838000054
:1004E60007182020221E020008F808000008F80855
:1004F600203F210101213F20000808F808080000DC
:100506000020203F2020000000000808F80808000E
:10051600C08080807F00000008F888C02818080086
:10052600203F20012638200008F8080000000000BF
:10053600203F20202020300008F8F800F8F80800B6
:10054600203F003F003F200008F830C00008F808B0
:10055600203F200007183F00E01008080810E000C0
:100566000F10202020100F0008F808080808F000D7
:10057600203F210101010000E01008080810E000FA
:100586000F18242438504F0008F88888888870008F
:10059600203F2000030C302000708808080838002F
:1005A6000038202121221C00180808F80808180025
:1005B6000000203F2000000008F808000008F808A6
:1005C600001F202020201F000878880000C8380857
:1005D600000007380E010000F80800F80008F800CF
:1005E600033C0700073C0300081868808068180869
:1005F60020302C03032C30200838C800C8380800E7
:100606000000203F2000000010080808C838080035
:100616002038262120201800000000FE02020200D9
:100626000000007F40404000000C30C00000000089
:10063600000000010638C00000020202FE000000B1
:10064600004040407F000000000004020202040057
:100656000000000000000000000000000000000094
:10066600808080808080808000020204000000007C
:100676000000000000000000000080808080000074
:100686000019242222223F2008F800808000000062
:10069600003F112020110E00000000808080000025
:1006A600000E112020201100000000808088F80034
:1006B600000E112020103F20000080808080000066
:1006C600001F222222221300008080F088888818CA
:1006D6000020203F202000000000808080808000D5
:1006E600006B94949493600008F80080808000006A
:1006F600203F210000203F20008098980000000045
:100706000020203F20200000000000809898000074
:1007160000C08080807F000008F800008080800094
:10072600203F24022D302000000808F800000000B9
:100736000020203F20200000808080808080800074
:10074600203F20003F20003F808000808080000006
:10075600203F210000203F20000080808080000094
:10076600001F202020201F008080008080000000C5
:1007760080FFA12020110E000000008080808000F4
:10078600000E112020A0FF808080800080808000E5
:1007960020203F2120000100000080808080800012
:1007A6000033242424241900008080E08080000087
:1007B6000000001F202000008080000000808000D4
:1007C600001F202020103F20808080000080808035
:1007D60000010E30080601008080008000808080C5
:1007E6000F300C030C300F000080800080808000EA
:1007F6000020312E0E312000808080000080808015
:1008060080818E70180601000080808080808000C4
:100816000021302C2221300000000000807C0202E2
:1008260000000000003F404000000000FF00000004
:1008360000000000FF0000000002027C80000000B3
:100846000040403F000000000006010102020404CF
:0808560000000000000000009A
:05114500F583E493FFB7
:10114A007E08D2C4C2C7AD061EED6014EF30E704B4
:10115A00D2C68002C2C6D2C7C2C7EF25E0FF80E668
:01116A002262
:0D10F10024B0FF1210FE7F011210FE7F10D0
:1010FE007E08C2C4C2C7AD061EED6014EF30E70411
:10110E00D2C68002C2C6D2C7C2C7EF25E0FF80E6B4
:01111E0022AE
:10000600AC07ED24B0FF1210FEEC54F0C4540F44BC
:0C00160010FF1210FEEC540FFF0210FE51
:0211C600AC0774
:1011C800E4FBEB1210F1E4FAAF0412114A0ABA80F8
:0511D800F70BBB08ED60
:0111DD0022EF
:1011F400E4FCEC1210F1E4FBE4FF12114A0BBB8097
:05120400F70CBC08ED31
:0112090022C2
:10002600EF4E60157D377C05ED1DAA0470011C4A54
:0900360070F6EF1F70EA1E80E76E
:01003F00229E
:10095D00D2C7C2C57F327E00120026D2C57FAE122D
:10096D0010FEE4FF1210F97F401210FE7F8112106D
:10097D00FE7FCF1210FE7FA11210FE7FC81210FE57
:10098D007FA61210FE7FA81210FE7F3F1210FE7F71
:10099D00D31210FEE4FF1210FE7FD51210FE7F80E1
:1009AD001210FE7FD91210FE7FF11210FE7FDA12A7
:1009BD0010FE7F121210FE7FDB1210FE7F40121010
:1009CD00FE7F201210FE7F021210FE7F8D1210FE90
:1009DD007F141210FE7FA41210FE7FA61210FE7F50
:0F09ED00AF1210FEE4FF1211C6E4FDFF02000678
:0A0F61008F638D648B658A668967D3
:100F6B00E4F568FCF569AB65AA66A96785698275C6
:100F7B008300120AB0604224E0F568E563D3947EE7
:100F8B004005E4F5630564AD64AF63120006E4FC51
:100F9B0075F006E568A42446F582E5F03400F58388
:100FAB00E5822CF582E435831211450CBC06E17405
:090FBB00062563F563056980ADAC
:010FC400220A
:0A0B32008F5C8D5D8B5E8A5F896029
:100B3C00E4F561FCF562AB5EAA5FA9608562827523
:100B4C008300120AB0606D24E0F561E55CD3947803
:100B5C004005E4F55C055DAD5DAF5C120006E4FCA0
:100B6C0075F010E561A42CF582E435F0F583E5828F
:100B7C00246EF582E58334021211450CBC08E1E5C4
:100B8C005D04FDAF5C120006E4FC75F010E561A499
:100B9C002CF582E435F0F583E5822476F582E58345
:100BAC0034021211450CBC08E17408255CF55C0597
:040BBC0062020B4284
:010BC0002212
:0A09FC008F5C8D5D8B5E8A5F896061
:100A0600E4F561FCF562AB5EAA5FA960856282755A
:100A16008300120AB0607924E0F561E55CD394782E
:100A26004005E4F55C055DAD5DAF5C120006E4FCD7
:100A360075F010E561A42CF582E435F0F583E582C6
:100A4600246EF582E5833402F583E493F4FF1211F4
:100A56004A0CBC08DBE55D04FDAF5C120006E4FC55
:100A660075F010E561A42CF582E435F0F583E58296
:100A76002476F582E5833402F583E493F4FF1211BC
:100A86004A0CBC08DB7408255CF55C0562020A0C9E
:010A9600223D
:0512780000000000224F
:081267007F0C7EA9DEFEDFFC16
:01126F00225C
:10121F00AD07AC06ED1DAE0470011C4E6005121239
:04122F006780F122C1
:10123300EF1FAC0670011E4C600512127880F1227C
:100BCD00020EFCE493A3F8E493A34003F68001F234
:100BDD0008DFF48029E493A3F85407240CC8C33329
:100BED00C4540F4420C8834004F456800146F6DFF8
:100BFD00E4800B0102040810204080900E93E47EE7
:100C0D00019360BCA3FF543F30E509541FFEE493EC
:100C1D00A360010ECF54C025E060A840B8E493A3B3
:100C2D00FAE493A3F8E493A3C8C582C8CAC583CADE
:100C3D00F0A3C8C582C8CAC583CADFE9DEE780BE96
:010EFB0000F6
:100A9700BB010689828A83E0225002E722BBFE025D
:090AA700E32289828A83E4932290
:100AB000BB010CE58229F582E5833AF583E02250FB
:100AC00006E92582F8E622BBFE06E92582F8E22245
:0D0AD000E58229F582E5833AF583E493225F
:100ADD00BC000BBE0029EF8DF084FFADF022E4CCFD
:100AED00F875F008EF2FFFEE33FEEC33FCEE9DECC6
:100AFD00984005FCEE9DFE0FD5F0E9E4CEFD22ED0C
:100B0D00F8F5F0EE8420D21CFEADF075F008EF2F55
:100B1D00FFED33FD4007985006D5F0F222C398FD46
:050B2D000FD5F0EA22E3
:00000001FF
